:100000000C945D000C9485000C9485000C94850084
:100010000C9485000C9485000C9485000C9485004C
:100020000C9485000C9485000C9485000C9485003C
:100030000C9485000C9485000C9485000C9485002C
:100040000C94DF020C9485000C94AD020C94870292
:100050000C9485000C9485000C9485000C9485000C
:100060000C9485000C9485000000000025002800F9
:100070002B0000000000240027002A0004040404D0
:100080000404040402020202020203030303030342
:10009000010204081020408001020408102001021F
:1000A00004081020000000080002010000030407FB
:1000B0000000000000000000290311241FBECFEF44
:1000C000D8E0DEBFCDBF22E0A8E3B1E001C01D92C1
:1000D000AF32B207E1F711E0A0E0B1E0E2EEFCE000
:1000E00002C005900D92A833B107D9F710E0CDE515
:1000F000D0E004C02197FE010E946406CC35D107F0
:10010000C9F70E9468030C946F060C940000EAE49F
:10011000F1E0A089B18982E08C93A485B5851C9219
:10012000A685B7858FEC8C93108EA489B58986E05F
:100130008C93A289B3898C9180618C93A289B389B5
:100140008C9188608C93A289B3898C9180688C9300
:100150000288F389E02D80818F7D80830895CF927E
:10016000DF92EF92FF920F931F93CF93DF936C0177
:100170007A018B01C0E0D0E0CE15DF0581F0D80117
:100180006D918D01D601ED91FC910190F081E02DF2
:10019000C6010995892B11F02196EECF7E01C7018A
:1001A000DF91CF911F910F91FF90EF90DF90CF9053
:1001B0000895089580E090E00895FC01538D448DEA
:1001C000252F30E0842F90E0821B930B541710F002
:1001D000CF96089501970895FC01918D828D98170F
:1001E00061F0828DDF01A80FB11D5D968C91928D1B
:1001F0009F5F9F73928F90E008958FEF9FEF089518
:10020000FC01918D828D981731F0828DE80FF11DE0
:10021000858D90E008958FEF9FEF0895FC01918DFB
:10022000228D892F90E0805C9F4F821B91098F73F4
:10023000992708958AE491E00E940E0121E0892B1C
:1002400009F420E0822F0895FC01848DDF01A80FBE
:10025000B11DA35ABF4F2C91848D90E001968F73EE
:100260009927848FA689B7892C93A089B1898C910D
:10027000837080648C93938D848D981306C002885C
:10028000F389E02D80818F7D80830895EF92FF9226
:100290000F931F93CF93DF93EC0181E0888F9B8DA9
:1002A0008C8D981305C0E889F989808185FD26C069
:1002B000F62E0B8D10E00F5F1F4F0F731127E02EEE
:1002C0008C8DE8120CC00FB607FCFACFE889F989CB
:1002D000808185FFF5CFCE010E942401F1CF8B8D67
:1002E000FE01E80FF11DE35AFF4FF0829FB7F8942B
:1002F0000B8FEA89FB89808180620AC09FB7F894DE
:10030000EE89FF896083E889F98980818370806440
:1003100080839FBF81E090E0DF91CF911F910F918B
:10032000FF90EF900895CF93DF93EC01888D8823A1
:10033000C9F0EA89FB89808185FD05C0A889B98952
:100340008C9186FD0FC00FB607FCF5CF808185FF2D
:10035000F2CFA889B9898C9185FFEDCFCE010E949B
:100360002401E7CFDF91CF91089580E090E0892BC1
:1003700029F00E941A0181110C940000089590E068
:10038000FC01EC55FF4F2491FC01E057FF4F3491E5
:10039000FC01E458FF4FE491EE2309F43CC0222312
:1003A00039F1233091F038F42130A9F0223001F5F1
:1003B00084B58F7D12C0273091F02830A1F0243011
:1003C000B9F4809180008F7D03C0809180008F7789
:1003D000809380000DC084B58F7784BD09C0809163
:1003E000B0008F7703C08091B0008F7D8093B00004
:1003F000F0E0EE0FFF1FE859FF4FA591B4919FB7B2
:10040000F894611104C08C913095382302C0EC91AE
:100410003E2B3C939FBF08952FB7F89460913D0108
:1004200070913E0180913F01909140012FBF08954E
:100430006AEF8AE491E00E94460165E58AE491E072
:100440000E94460165E58AE491E00C94460161153D
:10045000710579F0FB0101900020E9F73197AF01B8
:10046000461B570BDC01ED91FC910280F381E02DDE
:10047000099480E090E008958F929F92AF92BF928E
:10048000EF92FF920F931F93CF93DF93CDB7DEB719
:10049000A1970FB6F894DEBF0FBECDBF7C01FA0165
:1004A000CB0119A2223008F42AE08E010F5D1F4F04
:1004B000822E912CA12CB12CBF01A50194010E9488
:1004C0004206F901CA01015011096A3014F4605D55
:1004D00001C0695CD8016C93232B242B252B61F779
:1004E000B801C7010E942702A1960FB6F894DEBF9B
:1004F0000FBECDBFDF91CF911F910F91FF90EF9075
:10050000BF90AF909F908F9008950E946A061F92AF
:100510000F920FB60F9211242F933F934F935F9337
:100520006F937F938F939F93AF93BF93EF93FF93BB
:100530008AE491E00E942401FF91EF91BF91AF9175
:100540009F918F917F916F915F914F913F912F91EB
:100550000F900FBE0F901F9018951F920F920FB61D
:100560000F9211242F938F939F93EF93FF93E0911A
:100570005A01F0915B018081E0916001F09161018D
:1005800082FD12C09081809163018F5F8F732091F3
:100590006401821751F0E0916301F0E0E65BFE4FE9
:1005A000958F8093630101C08081FF91EF919F91AE
:1005B0008F912F910F900FBE0F901F9018951F9243
:1005C0000F920FB60F9211242F933F938F939F9307
:1005D000AF93BF9380913D0190913E01A0913F0167
:1005E000B091400130913C0123E0230F2D3720F4DE
:1005F0000196A11DB11D05C026E8230F0296A11D7D
:10060000B11D20933C0180933D0190933E01A09346
:100610003F01B09340018091380190913901A09140
:100620003A01B0913B010196A11DB11D80933801A3
:1006300090933901A0933A01B0933B01BF91AF91E0
:100640009F918F913F912F910F900FBE0F901F9010
:100650001895EAE4F1E01382128288EE93E0A0E0BC
:10066000B0E084839583A683B78384E091E091838F
:10067000808385EC90E09587848784EC90E0978771
:10068000868780EC90E0918B808B81EC90E0938B5F
:10069000828B82EC90E0958B848B86EC90E0978B3C
:1006A000868B118E128E138E148EE7EEF1E0168279
:1006B0001782108611861286138614861586168672
:1006C0001786108A118A128A138A148A158A089545
:1006D000789484B5826084BD84B5816084BD85B51D
:1006E000826085BD85B5816085BD80916E00816029
:1006F00080936E00109281008091810082608093CF
:1007000081008091810081608093810080918000D0
:100710008160809380008091B10084608093B100FB
:100720008091B00081608093B00080917A008460F5
:1007300080937A0080917A00826080937A00809121
:100740007A00816080937A0080917A00806880933B
:100750007A001092C10010922B0210922C0210927B
:100760002D0210922E021092E9011092EA011092CD
:10077000EB011092EC010E940C026B017C014B0119
:100780005C0128EB820E2BE0921EA11CB11C0E9482
:100790000C026C157D058E059F0528F086169706C0
:1007A000A806B906A0F78AE491E090932A02809304
:1007B00029020E9487000E940C026093E901709355
:1007C000EA018093EB019093EC0162E171E080918A
:1007D000290290912A020E9427020E940C026B01BA
:1007E0007C014B015C013AE0830E911CA11CB11C01
:1007F0000E940C026C157D058E059F0528F086165B
:100800009706A806B906A0F781E08093FD010E9433
:100810008700109241011092420110924301109200
:1008200045011092440184EFC82EDD24D394E12CBD
:10083000F12C0E940C02672B682B692B41F40E945B
:100840000C02623071058105910508F410C10E9407
:100850000C028090460190904701A0904801B09012
:100860004901681579058A059B0540F460934601A6
:10087000709347018093480190934901809046010D
:1008800090904701A0904801B09049019B01AC01B4
:10089000281939094A095B0949015A013AEF8316B7
:1008A0009104A104B10408F4E2C06093460170937E
:1008B00047018093480190934901C092F501D0927D
:1008C000F601E092F701F092F8011092F90110920E
:1008D000FA011092FB011092FC018091ED019091C0
:1008E000EE01A091EF01B091F0018093F10190939E
:1008F000F201A093F301B093F4010E940C02609303
:10090000ED017093EE018093EF019093F0010E944E
:100910000C026093E9017093EA018093EB019093DC
:10092000EC010E940C024B015C0164E271E08091D9
:10093000290290912A020E9427022AE041E050E019
:1009400060E070E08091290290912A020E943C02AE
:100950006BE271E08091290290912A020E942702A5
:100960002AE0B501A4018091290290912A020E94F7
:100970003C026DE271E08091290290912A020E946E
:1009800027028091ED019091EE01A091EF01B091CD
:10099000F001B501A401481B590B6A0B7B0B2AE03F
:1009A0008091290290912A020E943C026DE271E03E
:1009B0008091290290912A020E9427024091ED0124
:1009C0005091EE016091EF017091F0018091F10181
:1009D0009091F201A091F301B091F401481B590BE1
:1009E0006A0B7B0B2AE08091290290912A020E94D7
:1009F0003C026FE271E08091290290912A020E94EC
:100A000027020E940C02AB01BC012AE0809129025E
:100A100090912A020E943C02C0912902D0912A02A0
:100A200061E371E0CE010E94270261E271E0CE0134
:100A30000E9427020E940C024B015C012B013C0129
:100A400045E0440E511C611C711C0E940C0268158B
:100A500079058A059B0508F008C10E940C02609385
:100A6000ED017093EE018093EF019093F0018AE421
:100A700091E00E940E0103970CF4F4C0C091440170
:100A8000D09145018AE491E00E94EC00CF5BDE4FFB
:100A90008883882361F3C0914401D0914501C2301D
:100AA000D10524F0229709F0D8C00CC08AE491E067
:100AB0000E94EC00FE01EF5BFE4F8083882309F467
:100AC000DBC0CBC00E94180260914101C62FD0E06C
:100AD000CE0114E0959587951A95E1F70D9739F6B3
:100AE0008AE491E00E944601B09042016B2D8AE4B5
:100AF00091E00E94460110914301612F8AE491E048
:100B00000E9446010E941802B4E0CC0FDD1FBA9586
:100B1000E1F710FF22C061E08AE491E00E94460103
:100B2000CE01A4E095958795AA95E1F78E50877040
:100B3000806480937C0080917A00806480937A0046
:100B400080917A0086FDFCCF6091780080917900D9
:100B50008AE491E00E9446018ACF62E08AE491E053
:100B60000E944601212F30E0220F232F221F330B3A
:100B70002B0D311DCE01F4E095958795FA95E1F79F
:100B8000FC01E057FF4F6491FC01E458FF4F449192
:100B9000442399F050E0440F551FFA01EE58FF4FDF
:100BA000A591B491FA01E859FF4F459154914FB77F
:100BB000F894EC91E62BEC934FBF2115310509F425
:100BC00046C02F3F310509F444C0FC01EC55FF4FEE
:100BD000E491E330F9F048F4E130B9F0E230A1F506
:100BE00084B5806284BD28BD42CFE730E9F0E830AB
:100BF00019F1E43049F58091800080628093800093
:100C000030938B0020938A0032CF84B5806884BDF6
:100C100027BD2DCF80918000806880938000309325
:100C200089002093880023CF8091B0008068809352
:100C3000B0002093B3001BCF8091B00080628093FE
:100C4000B0002093B40013CF2038310514F460E0D5
:100C500001C061E00E94BF010ACF109245011092CD
:100C6000440105CF0E94B501E4CD4616570668063B
:100C7000790608F0EACEF1CE2196D0934501C093D3
:100C8000440109CFA1E21A2EAA1BBB1BFD010DC016
:100C9000AA1FBB1FEE1FFF1FA217B307E407F5072C
:100CA00020F0A21BB30BE40BF50B661F771F881F08
:100CB000991F1A9469F760957095809590959B019E
:100CC000AC01BD01CF010895EE0FFF1F0590F49117
:100CD000E02D099481E090E0F8940C946F06F8946C
:020CE000FFCF44
:100CE200000000004601AF00DD0093010E01EC00A0
:100CF2000001564D4450565F317C315F564D445091
:100D0200560D0A00564D4450455F003A323A007C77
:080D1200005F564D44504500FE
:00000001FF
